:100000000C943B0618951895189518951895189501
:100010001895189518951895189518951895189578
:100020001895189518951895189518951895189568
:100030000C94E4031895189518951895189518952B
:1000400018951895189518950C9488050C94E30547
:100050001895189518951895189518951895189538
:100060001895189518951895189518951895189528
:100070001895189518951895189518951895189518
:100080001895189518951895189518950A0D2D2DF1
:100090002D2D2D2D2D2D2D2D2D2D2D2D2D2D2D2D90
:1000A0002D2D2D2D2D2D2D2D2D2D2D2D2D2D2D2D80
:1000B0002D2D2D2D2D2D2D2D2D2D2D2D2D2D2D2D70
:1000C0002D2D2D2D2D2D2D2D2D2D2D2D0A0D417448
:1000D0006D656C20415652343436202D204C696EAB
:1000E00065617220737065656420636F6E74726FF2
:1000F0006C206F662073746570706572206D6F740C
:100100006F720A0D0A0D3F20202020202020202D74
:100110002053686F772068656C700A0D61205B64FE
:100120006174615D202D2053657420616363656C8B
:1001300065726174696F6E202872616E67653A201E
:100140003731202D203332303030290A0D64205BC6
:10015000646174615D202D2053657420646563655E
:100160006C65726174696F6E202872616E67653AA2
:10017000203731202D203332303030290A0D7320C2
:100180005B646174615D202D20536574207370651C
:100190006564202872616E67653A203132202D2017
:1001A0006D6F746F72206C696D6974290A0D6D2012
:1001B0005B646174615D202D204D6F7665205B640A
:1001C0006174615D207374657073202872616E675D
:1001D000653A202D3634303030202D203634303002
:1001E00030290A0D6D6F7665205B73746570735DE1
:1001F000205B616363656C5D205B646563656C5D5A
:10020000205B73706565645D0A0D2020202020202E
:100210002020202D204D6F7665207769746820613D
:100220006C6C20706172616D6574657273206769B2
:1002300076656E0A0D3C656E7465723E20202D2039
:10024000526570656174206C617374206D6F7665A2
:100250000A0D0A0D202020206163632F646563204E
:100260006461746120676976656E20696E20302E46
:1002700030312A7261642F7365635E322028313019
:1002800030203D2031207261642F7365635E322916
:100290000A0D2020202073706565642064617461FC
:1002A00020676976656E20696E20302E30312A72A3
:1002B00061642F7365632028313030203D20312068
:1002C0007261642F736563290A0D2D2D2D2D2D2D3F
:1002D0002D2D2D2D2D2D2D2D2D2D2D2D2D2D2D2D4E
:1002E0002D2D2D2D2D2D2D2D2D2D2D2D2D2D2D2D3E
:1002F0002D2D2D2D2D2D2D2D2D2D2D2D2D2D2D2D2E
:100300002D2D2D2D2D2D2D2D0A0D0007030B090D43
:100310000C0E061800202020202020202020282835
:1003200028282820202020202020202020202020B5
:1003300020202020208810101010101010101010F5
:100340001010101010040404040404040404041025
:1003500010101010101041414141414101010101B3
:10036000010101010101010101010101010101017D
:100370001010101010104242424242420202020289
:10038000020202020202020202020202020202024D
:05039000101010102008
:100396000E94D4020E94210500E00E9402030E94EE
:1003A600D603789408950E94DB0602E3802E9924F2
:1003B60009E1602E7724402E5524C401AA24E8DFE3
:1003C60005E411E0ECD094D09A928A92B40149E106
:1003D60050E029E130E09BD0A8EAB1E01DC001E081
:1003E600A01609F085D0E3E9F1E000810D7F0083D6
:1003F6000E9484050091930100FF0AC00DE411E0FC
:10040600CED00091930100FDFCCF08E511E0C7D0E6
:100416009A928A926ED07BD00091930101FFFCCF15
:100426000C910D36F9F56FD059F47BD0480161D0A7
:100436000E941803AA24A39408E411E0B0D0D3CFF5
:100446000F3669F60281063751F60381053639F60D
:100456000481003221F686E090E08D010B5F63D0C7
:10046600480101C0019658D011F00D30D9F745D09A
:10047600380101C0019650D011F00D30D9F73DD0AA
:10048600280101C0019648D011F00D30D9F78D0131
:10049600080F191F0F5F47D0C801B801A2019301C9
:1004A6008401C6CF013641F42ED009F098CF39D059
:1004B6003801AA24A39497CF043631F424D009F046
:1004C6008ECF2FD02801F5CF033731F41CD009F099
:1004D60086CF27D0C801EDCF0D3029F40AD084018C
:1004E6000E941803E6CF0F3309F079CF01D0E1CF90
:1004F6001CC0BC01A2019301089501968D01080F4D
:10050600191F0C940706FD01018100320895E4E9E4
:10051600F1E0008111811AC0FD01E80FF91F008189
:10052600F4CF8D010E5F1F4FECCF9A938A9380E034
:1005360090E003C00E9435050196FC01E457FF4F89
:1005460004910023B9F78991999108950E94DC06D8
:10055600D801C9012A013B018A849B840DE511E07B
:100566001ED08D011AD00DE611E019D08C0115D0E0
:1005760004E711E014D0820110D009E711E00FD092
:1005860083010BD00EE711E00AD0840106D003E800
:1005960011E005D0ECE00C94ED060C9457050C9494
:1005A600460505B30F7005BB04B3006F04BB00E03E
:1005B60002BB00EF01BB08958A930130E4E9F1E044
:1005C60039F400811181015010400083118308C065
:1005D600208131812F5F3F4F20833183002319F023
:1005E6000281039502C002810A9502830281077087
:1005F60002838091960103D0082F89910895F0E037
:10060600E02FE55FFC4F04910295007F15B3102B98
:1006160015BB102F1F6025B3212325BB22B3202B2A
:1006260022BB02B3012302BB08950E94D6063801FD
:1006360069017A011123C2D000813AF4086000836F
:100646007194619400E0700A02C0077F008301E0A4
:10065600601600E0700671F40FEF01870287ABD0D9
:100666000260008308EE13E00183128395D010E048
:100676001BBD7DC0062D072909F47DC0CB01AB014A
:1006860088D00BE412E221E230E080D097D00783D5
:1006960010874601AA247CD000EA1FEA29EB32E142
:1006A60075D08AD1A801B90101E814E26BD071D0E6
:1006B6000E94910683D001831283AC016AD08C011B
:1006C6005DD0C801D9014AE351E086015BD05ED016
:1006D600A801B9018C019D0159D02801012B19F4FB
:1006E60055244424439420E030E0A301672D660F8F
:1006F600660B762F87010E946906CE0CDF1C48D058
:1007060045D0202F212B11F401E010E040165106B0
:1007160018F00619170909C0A2013BD084012ED092
:10072600A70134D011950195104048D00583168352
:1007360005811681012B19F40FEF058306830581C8
:100746001681600E711E6382748235D027813085D2
:10075600418152812417350720F0218332830360BB
:1007660001C001600083A186A28616D0ABBC0ABD7B
:100776000EB502600EBDE0E10C94E70620E030E025
:100786000C946906FBDF44E650E008950C94B40629
:10079600A60160E070E00895E3E9F1E00081016000
:1007A60000830AE008950AD006D0008308E00EBD53
:1007B60000E107BF08950081087F0895E7E9F1E0A9
:1007C6000895AA929A928A927A926A925A924A9232
:1007D600BA93AA939A938A93FA93EA933A922A92AD
:1007E6001A920A927A936A935A934A933A932A935D
:1007F6001A930A936FB67BB60091980110919901EE
:100806001BBD0ABD009197010770005049F00A957B
:10081600C9F00A9509F45AC00A9509F444C062C0A1
:1008260000E00093A4010093A5010093A6010093A4
:10083600A7010EB5087F0EBDE3E9F1E000810E7F4A
:10084600008350C08DD0B0E076D09D016ED000916F
:10085600A4011091A50120919A0130919B010217E4
:10086600130758F000919C0110919D010093A0017F
:100876001093A10157D0026033C000919E011091E0
:100886009F010415150570F14092A2015092A30133
:1008960040909E0150909F01B093A601B093A7018E
:1008A60041D003601DC081D089DF78D04780508455
:1008B6002381348102171307A8F005811681018769
:1008C60012874384548477DF0260BACF49D033D08D
:1008D6002A2F30E02AD01091A10111231AF022D03C
:1008E6000093970140929801509299017BBE6FBE8A
:1008F6000991199129913991499159916991799162
:100906000990199029903990E991F99189919991D5
:10091600A991B99149905990699079908990999047
:10092600A99018950091970147CF30DF4093A60113
:100936005093A7010895880F991FAA1F0091A60139
:100946001091A70130E0800F911FA31F04D02A2F1A
:100956001DDF401A510AA4016A2D7A2D8C010895D3
:1009660024D0E7E9F1E01AD0018512850F5F1F4F09
:10097600018712878091A0019091A101880F991F8C
:10098600880F991F01964C01A92EAA0CAA0840901F
:10099600980150909901C201A0E008950585168539
:1009A6000F5F1F4F0587168708950091970103FB78
:1009B60000E000F90C94DF020E94E206080119012A
:1009C60080E090E0A0E0B0E000E010E020E030E45D
:1009D600AC01BD01400F511F621F731F041615069F
:1009E6002606370650F0081A190A2A0A3B0A001A80
:1009F600110A220A330A41E001C040E0B695A795E4
:100A060097958795442321F0800F911FA21FB31F4E
:100A160042E00E948906402F412B422B432BC1F610
:100A260080159105A205B30520F48F5F9F4FAF4F48
:100A3600BF4F8C019D01E4E00C94F30600E00093A7
:100A4600900007E409B908ED0AB906E0009395009D
:100A560005D00093CA010093C901089500E00093F0
:100A6600C80108952091C90123952F731091CA01D9
:100A76002117E1F3F0E0E22FE553FE4F00832093C8
:100A8600C901559A08950E94E206C801A0E0B0E0A7
:100A960002C036D0A395FC01EA0FFB1F008100239C
:100AA600C1F7E4E00C94F3060E94E206D80180E167
:100AB60097E211232AF4B195A195B0400DE220D01A
:100AC600A817B90728F414D0023000E09007C0F741
:100AD6000BD0F801E857FE4F008112D005D0DA019D
:100AE60007D0012BA9F7DDCFAC018D010C9455067B
:100AF6004AE050E08C010E945506C801089508E0BE
:100B0600B1CFACDF0093A8010895AA939A938A9374
:100B1600FA93EA933A922A921A920A927A936A93EB
:100B26005A934A933A932A931A930A939FB7ABB769
:100B36008CB10091930100FD2FC00091C80188304F
:100B460091F4002349F1DBDF00E2DADFD8DF009120
:100B5600C8010A9584DF00E0E091C801F0E0E8559D
:100B6600FE4F008319C010E0E8EAF1E0E00FF11F44
:100B76000F3138F4808311830091C80103956FDF2C
:100B860002C08293BCDF8D3029F4E3E9F1E00081F5
:100B96000260E7CF082FB4DFABBF9FBF0991199161
:100BA60029913991499159916991799109901990B1
:100BB60029903990E991F99189919991A99118957E
:100BC600FA93EA932A931A930A932FB70091CA01CC
:100BD6001091C901101769F00091CA0103950F73AE
:100BE6000093CA01F0E0E02FE553FE4F00810CB9F7
:100BF60001C055982FBF099119912991E991F99151
:100C0600189500008895FECF0E94E106D80180E085
:100C160001C01196EC9127D00870D9F70C910D32CE
:100C260011F481E002C00B3209F4119640E050E065
:100C36000CC0FD014190DF010AE00E944D06442DE3
:100C460050E0400F511F40535040EC9110E00BD044
:100C5600047079F7882319F05195419550408A011F
:100C6600E5E00C94F206F0E0EB5EFC4F049108958B
:100C760004E40DBF01E00EBFC5E2D1E00E94FC0610
:100C8600002311F00E940E070E94D6010E9404065E
:100C96000C940406149F102D059F100D049F002D23
:100CA600110D089500241124EFE0001F111F001CF0
:100CB600111C0416150610F0041A150AEA95AAF76F
:100CC600001F111FA0010095109508952224349F3E
:100CD600302D259F300D169F300D079F300D249F18
:100CE600202D310D159F200D311D069F200D311D24
:100CF600149F102D210D321D059F100D211D321D33
:100D0600049F002D110D221D321D08954A952AF0CB
:100D16003695279517950795F9CF08950024112440
:100D26001001E0E2EA9592F0001F111F221F331F07
:100D3600001C111C221C331C041615062606370639
:100D460088F3041A150A260A370AECCF001F111F6A
:100D5600221F331FA001B1010095109520953095F3
:100D66000895FF27772312F4F16015D0332312F488
:100D7600F09509D00E949106F69508F404D0F695F0
:100D860008F409C0089530952095109501951F4FD8
:100D96002F4F3F4F089570956095509541955F4F41
:100DA6006F4F7F4F0895FA92EA92DA92CA92BA92F8
:100DB600AA929A928A927A926A925A924A92BA938C
:100DC600AA939A938A930895FF84EE84DD84CC8453
:100DD600BB84AA84998488847F806E805D804C80E1
:100DE600BB81AA8199818881F0E0EC0FFD1FEF019C
:100DF600089501E0089520E008D0E9F708953BBF83
:100E060027913BB702D0D9F708952D930150104092
:100E1600202F212B08950CE7402E0EE0502E00E0E7
:100E2600602EF201362D6BBE07911691F201EE5F30
:100E3600FF4F3F4F3BBFA791B691F201362DEC5FB6
:100E4600FF4F3F4F3BBF479157916691242F252B6C
:100E5600262B21F0FA01362FD2DF01C0CCDF07E0C6
:100E6600400E00E0501E601EA201662D4A385E400C
:100E76006040B8F208954E0045018A0E007800934E
:100E8600010000000A0D000A0D20200052756E6E4A
:100E9600696E672E2E2E004F4B0A0D000A0D20207C
:100EA6004D6F746F7220706F733A200020202020DF
:100EB600613A002020643A002020733A0020206D19
:100EC6003A000A0D3E200030313233343536373899
:020ED6003900E1
:00000001FF
:00000001FF
